{"abi":[{"type":"function","name":"executeIntent","inputs":[{"name":"user","type":"address","internalType":"address"},{"name":"action","type":"string","internalType":"string"},{"name":"amount","type":"uint256","internalType":"uint256"}],"outputs":[],"stateMutability":"nonpayable"},{"type":"event","name":"IntentExecuted","inputs":[{"name":"user","type":"address","indexed":true,"internalType":"address"},{"name":"action","type":"string","indexed":false,"internalType":"string"},{"name":"amount","type":"uint256","indexed":false,"internalType":"uint256"}],"anonymous":false}],"bytecode":{"object":"0x6080604052348015600e575f5ffd5b5061018c8061001c5f395ff3fe608060405234801561000f575f5ffd5b5060043610610029575f3560e01c8063becc9cdd1461002d575b5f5ffd5b61004061003b36600461008d565b610042565b005b836001600160a01b03167fc0567ca293ab486ec85586184fba9ad9c7b7ada9cccd27c0cec56cb3671a3fcb84848460405161007f9392919061011f565b60405180910390a250505050565b5f5f5f5f606085870312156100a0575f5ffd5b84356001600160a01b03811681146100b6575f5ffd5b9350602085013567ffffffffffffffff8111156100d1575f5ffd5b8501601f810187136100e1575f5ffd5b803567ffffffffffffffff8111156100f7575f5ffd5b876020828401011115610108575f5ffd5b949760209190910196509394604001359392505050565b60408152826040820152828460608301375f606084830101525f6060601f19601f860116830101905082602083015294935050505056fea26469706673582212209180b3694a9b05e492c9064d13f3de1e95244d0855f75e9d1bdc8c295b682eee64736f6c634300081c0033","linkReferences":{}},"methodIdentifiers":{"executeIntent(address,string,uint256)":"becc9cdd"},"id":26}