{"abi":[{"type":"function","name":"executeIntent","inputs":[{"name":"user","type":"address","internalType":"address"},{"name":"action","type":"string","internalType":"string"},{"name":"amount","type":"uint256","internalType":"uint256"}],"outputs":[],"stateMutability":"nonpayable"},{"type":"event","name":"IntentExecuted","inputs":[{"name":"user","type":"address","indexed":true,"internalType":"address"},{"name":"action","type":"string","indexed":false,"internalType":"string"},{"name":"amount","type":"uint256","indexed":false,"internalType":"uint256"}],"anonymous":false}],"bytecode":{"object":"0x608060405234801561001057600080fd5b50610196806100206000396000f3fe608060405234801561001057600080fd5b506004361061002b5760003560e01c8063becc9cdd14610030575b600080fd5b61004361003e366004610090565b610045565b005b836001600160a01b03167fc0567ca293ab486ec85586184fba9ad9c7b7ada9cccd27c0cec56cb3671a3fcb84848460405161008293929190610127565b60405180910390a250505050565b600080600080606085870312156100a657600080fd5b84356001600160a01b03811681146100bd57600080fd5b9350602085013567ffffffffffffffff808211156100da57600080fd5b818701915087601f8301126100ee57600080fd5b8135818111156100fd57600080fd5b88602082850101111561010f57600080fd5b95986020929092019750949560400135945092505050565b604081528260408201528284606083013760006060848301015260006060601f19601f860116830101905082602083015294935050505056fea2646970667358221220df029003edb2ee05fbf2b2eaa2334f6d2159f4046e61e502a301dd7c8ec98c1e64736f6c63430008130033","linkReferences":{}},"methodIdentifiers":{"executeIntent(address,string,uint256)":"becc9cdd"},"id":23}