{"abi":[{"type":"function","name":"balances","inputs":[{"name":"","type":"address","internalType":"address"}],"outputs":[{"name":"","type":"uint256","internalType":"uint256"}],"stateMutability":"view"},{"type":"function","name":"calculateYield","inputs":[{"name":"user","type":"address","internalType":"address"}],"outputs":[{"name":"","type":"uint256","internalType":"uint256"}],"stateMutability":"view"},{"type":"function","name":"deposit","inputs":[{"name":"amount","type":"uint256","internalType":"uint256"}],"outputs":[],"stateMutability":"nonpayable"},{"type":"function","name":"totalDeposits","inputs":[],"outputs":[{"name":"","type":"uint256","internalType":"uint256"}],"stateMutability":"view"},{"type":"function","name":"withdraw","inputs":[{"name":"amount","type":"uint256","internalType":"uint256"}],"outputs":[],"stateMutability":"nonpayable"},{"type":"event","name":"Deposited","inputs":[{"name":"user","type":"address","indexed":true,"internalType":"address"},{"name":"amount","type":"uint256","indexed":false,"internalType":"uint256"}],"anonymous":false},{"type":"event","name":"Withdrawn","inputs":[{"name":"user","type":"address","indexed":true,"internalType":"address"},{"name":"amount","type":"uint256","indexed":false,"internalType":"uint256"}],"anonymous":false}],"bytecode":{"object":"0x608060405234801561001057600080fd5b5061033b806100206000396000f3fe608060405234801561001057600080fd5b50600436106100575760003560e01c806327e235e31461005c5780632e1a7d4d1461008e578063567add64146100a35780637d882097146100b6578063b6b55f25146100bf575b600080fd5b61007c61006a366004610248565b60006020819052908152604090205481565b60405190815260200160405180910390f35b6100a161009c366004610271565b6100d2565b005b61007c6100b1366004610248565b6101a2565b61007c60015481565b6100a16100cd366004610271565b6101d9565b3360009081526020819052604090205481111561012c5760405162461bcd60e51b8152602060048201526014602482015273496e73756666696369656e742062616c616e636560601b604482015260640160405180910390fd5b336000908152602081905260408120805483929061014b9084906102a0565b92505081905550806001600082825461016491906102a0565b909155505060405181815233907f7084f5476618d8e60b11ef0d7d3f06914655adb8793e28ff7f018d4c76d505d5906020015b60405180910390a250565b6001600160a01b03811660009081526020819052604081205460646101c882600a6102b9565b6101d291906102d0565b9392505050565b33600090815260208190526040812080548392906101f89084906102f2565b92505081905550806001600082825461021191906102f2565b909155505060405181815233907f2da466a7b24304f47e87fa2e1e5a81b9831ce54fec19055ce277ca2f39ba42c490602001610197565b60006020828403121561025a57600080fd5b81356001600160a01b03811681146101d257600080fd5b60006020828403121561028357600080fd5b5035919050565b634e487b7160e01b600052601160045260246000fd5b818103818111156102b3576102b361028a565b92915050565b80820281158282048414176102b3576102b361028a565b6000826102ed57634e487b7160e01b600052601260045260246000fd5b500490565b808201808211156102b3576102b361028a56fea2646970667358221220bc54ebb1b0c7f31e5515685125cdc70a54255ecb1a111f9138258b76a617b34764736f6c63430008130033","linkReferences":{}},"methodIdentifiers":{"balances(address)":"27e235e3","calculateYield(address)":"567add64","deposit(uint256)":"b6b55f25","totalDeposits()":"7d882097","withdraw(uint256)":"2e1a7d4d"},"id":24}