{"abi":[{"type":"constructor","inputs":[{"name":"_token","type":"address","internalType":"address"},{"name":"_strategy","type":"address","internalType":"address"}],"stateMutability":"nonpayable"},{"type":"function","name":"RATE","inputs":[],"outputs":[{"name":"","type":"uint256","internalType":"uint256"}],"stateMutability":"view"},{"type":"function","name":"YEAR","inputs":[],"outputs":[{"name":"","type":"uint256","internalType":"uint256"}],"stateMutability":"view"},{"type":"function","name":"balances","inputs":[{"name":"","type":"address","internalType":"address"}],"outputs":[{"name":"","type":"uint256","internalType":"uint256"}],"stateMutability":"view"},{"type":"function","name":"calculatePendingYield","inputs":[{"name":"user","type":"address","internalType":"address"}],"outputs":[{"name":"","type":"uint256","internalType":"uint256"}],"stateMutability":"view"},{"type":"function","name":"calculateYield","inputs":[{"name":"user","type":"address","internalType":"address"}],"outputs":[{"name":"","type":"uint256","internalType":"uint256"}],"stateMutability":"view"},{"type":"function","name":"claimYield","inputs":[],"outputs":[],"stateMutability":"nonpayable"},{"type":"function","name":"deposit","inputs":[{"name":"amount","type":"uint256","internalType":"uint256"}],"outputs":[],"stateMutability":"nonpayable"},{"type":"function","name":"lastClaimed","inputs":[{"name":"","type":"address","internalType":"address"}],"outputs":[{"name":"","type":"uint256","internalType":"uint256"}],"stateMutability":"view"},{"type":"function","name":"strategy","inputs":[],"outputs":[{"name":"","type":"address","internalType":"contract IYieldStrategy"}],"stateMutability":"view"},{"type":"function","name":"token","inputs":[],"outputs":[{"name":"","type":"address","internalType":"contract IERC20"}],"stateMutability":"view"},{"type":"function","name":"totalDeposits","inputs":[],"outputs":[{"name":"","type":"uint256","internalType":"uint256"}],"stateMutability":"view"},{"type":"function","name":"withdraw","inputs":[{"name":"amount","type":"uint256","internalType":"uint256"}],"outputs":[],"stateMutability":"nonpayable"},{"type":"event","name":"Deposited","inputs":[{"name":"user","type":"address","indexed":true,"internalType":"address"},{"name":"amount","type":"uint256","indexed":false,"internalType":"uint256"}],"anonymous":false},{"type":"event","name":"Withdrawn","inputs":[{"name":"user","type":"address","indexed":true,"internalType":"address"},{"name":"amount","type":"uint256","indexed":false,"internalType":"uint256"}],"anonymous":false},{"type":"event","name":"YieldClaimed","inputs":[{"name":"user","type":"address","indexed":true,"internalType":"address"},{"name":"yieldAmount","type":"uint256","indexed":false,"internalType":"uint256"}],"anonymous":false},{"type":"error","name":"AmountMustBeGreaterThanZero","inputs":[]},{"type":"error","name":"InsufficientBalance","inputs":[]},{"type":"error","name":"TransferFailed","inputs":[]}],"bytecode":{"object":"0x60a060405234801561000f575f5ffd5b5060405161098338038061098383398101604081905261002e91610075565b60015f8190556001600160a01b0392831660805280546001600160a01b031916919092161790556100a6565b80516001600160a01b0381168114610070575f5ffd5b919050565b5f5f60408385031215610086575f5ffd5b61008f8361005a565b915061009d6020840161005a565b90509250929050565b6080516108b06100d35f395f81816101a801528181610261015281816104b201526106c701526108b05ff3fe608060405234801561000f575f5ffd5b50600436106100b1575f3560e01c8063664e97041161006e578063664e9704146101495780637d88209714610151578063839145401461015a578063a8c62e7614610165578063b6b55f2514610190578063fc0c546a146101a3575f5ffd5b8063013eba92146100b557806327e235e3146100e75780632e1a7d4d146101065780633236bee41461011b578063406cf2291461012e578063567add6414610136575b5f5ffd5b6100d46100c33660046107a7565b60036020525f908152604090205481565b6040519081526020015b60405180910390f35b6100d46100f53660046107a7565b60026020525f908152604090205481565b6101196101143660046107d4565b6101ca565b005b6100d46101293660046107a7565b610391565b610119610433565b6100d46101443660046107a7565b61044f565b6100d4600a81565b6100d460045481565b6100d46301e1338081565b600154610178906001600160a01b031681565b6040516001600160a01b0390911681526020016100de565b61011961019e3660046107d4565b61045f565b6101787f000000000000000000000000000000000000000000000000000000000000000081565b6101d2610634565b335f9081526002602052604090205481111561020157604051631e9acf1760e31b815260040160405180910390fd5b61020a3361068f565b335f90815260026020526040812080548392906102289084906107ff565b925050819055508060045f82825461024091906107ff565b909155505060405163a9059cbb60e01b8152336004820152602481018290527f00000000000000000000000000000000000000000000000000000000000000006001600160a01b03169063a9059cbb906044016020604051808303815f875af11580156102af573d5f5f3e3d5ffd5b505050506040513d601f19601f820116820180604052508101906102d39190610812565b6102f0576040516312171d8360e31b815260040160405180910390fd5b60015460405163ccad973d60e01b8152336004820152602481018390526001600160a01b039091169063ccad973d906044015f604051808303815f87803b158015610339575f5ffd5b505af115801561034b573d5f5f3e3d5ffd5b50506040518381523392507f7084f5476618d8e60b11ef0d7d3f06914655adb8793e28ff7f018d4c76d505d591506020015b60405180910390a261038e60015f55565b50565b6001600160a01b0381165f908152600260205260408120548015806103cb57506001600160a01b0383165f90815260036020526040902054155b156103d857505f92915050565b6001600160a01b0383165f908152600360205260408120546103fa90426107ff565b905061040b6301e133806064610831565b600a6104178385610831565b6104219190610831565b61042b9190610848565b949350505050565b61043b610634565b6104443361068f565b61044d60015f55565b565b5f61045982610391565b92915050565b610467610634565b805f0361048757604051635e85ae7360e01b815260040160405180910390fd5b6104903361068f565b6040516323b872dd60e01b8152336004820152306024820152604481018290527f00000000000000000000000000000000000000000000000000000000000000006001600160a01b0316906323b872dd906064016020604051808303815f875af1158015610500573d5f5f3e3d5ffd5b505050506040513d601f19601f820116820180604052508101906105249190610812565b610541576040516312171d8360e31b815260040160405180910390fd5b335f908152600260205260408120805483929061055f908490610867565b925050819055508060045f8282546105779190610867565b9091555050335f9081526003602052604081205490036105a357335f9081526003602052604090204290555b600154604051630afe546360e21b8152336004820152602481018390526001600160a01b0390911690632bf9518c906044015f604051808303815f87803b1580156105ec575f5ffd5b505af11580156105fe573d5f5f3e3d5ffd5b50506040518381523392507f2da466a7b24304f47e87fa2e1e5a81b9831ce54fec19055ce277ca2f39ba42c4915060200161037d565b60025f54036106895760405162461bcd60e51b815260206004820152601f60248201527f5265656e7472616e637947756172643a207265656e7472616e742063616c6c00604482015260640160405180910390fd5b60025f55565b5f61069982610391565b905080156107a35760405163a9059cbb60e01b81526001600160a01b038381166004830152602482018390527f0000000000000000000000000000000000000000000000000000000000000000169063a9059cbb906044016020604051808303815f875af115801561070d573d5f5f3e3d5ffd5b505050506040513d601f19601f820116820180604052508101906107319190610812565b61074e576040516312171d8360e31b815260040160405180910390fd5b6001600160a01b0382165f8181526003602052604090819020429055517fc04825ba3f383b602255d2a13065a68e325c65c9e0ed5d031ea2b06f641873af9061079a9084815260200190565b60405180910390a25b5050565b5f602082840312156107b7575f5ffd5b81356001600160a01b03811681146107cd575f5ffd5b9392505050565b5f602082840312156107e4575f5ffd5b5035919050565b634e487b7160e01b5f52601160045260245ffd5b81810381811115610459576104596107eb565b5f60208284031215610822575f5ffd5b815180151581146107cd575f5ffd5b8082028115828204841417610459576104596107eb565b5f8261086257634e487b7160e01b5f52601260045260245ffd5b500490565b80820180821115610459576104596107eb56fea2646970667358221220cdf3856fc9f0d29e00deff357fde68018058b5cb1d6d22de0c6a436037921fe764736f6c634300081c0033","linkReferences":{}},"methodIdentifiers":{"RATE()":"664e9704","YEAR()":"83914540","balances(address)":"27e235e3","calculatePendingYield(address)":"3236bee4","calculateYield(address)":"567add64","claimYield()":"406cf229","deposit(uint256)":"b6b55f25","lastClaimed(address)":"013eba92","strategy()":"a8c62e76","token()":"fc0c546a","totalDeposits()":"7d882097","withdraw(uint256)":"2e1a7d4d"},"id":27}