{"abi":[{"type":"constructor","inputs":[{"name":"_token","type":"address","internalType":"address"},{"name":"_strategy","type":"address","internalType":"address"}],"stateMutability":"nonpayable"},{"type":"function","name":"RATE","inputs":[],"outputs":[{"name":"","type":"uint256","internalType":"uint256"}],"stateMutability":"view"},{"type":"function","name":"YEAR","inputs":[],"outputs":[{"name":"","type":"uint256","internalType":"uint256"}],"stateMutability":"view"},{"type":"function","name":"balances","inputs":[{"name":"","type":"address","internalType":"address"}],"outputs":[{"name":"","type":"uint256","internalType":"uint256"}],"stateMutability":"view"},{"type":"function","name":"calculatePendingYield","inputs":[{"name":"user","type":"address","internalType":"address"}],"outputs":[{"name":"","type":"uint256","internalType":"uint256"}],"stateMutability":"view"},{"type":"function","name":"calculateYield","inputs":[{"name":"user","type":"address","internalType":"address"}],"outputs":[{"name":"","type":"uint256","internalType":"uint256"}],"stateMutability":"view"},{"type":"function","name":"claimYield","inputs":[],"outputs":[],"stateMutability":"nonpayable"},{"type":"function","name":"deposit","inputs":[{"name":"amount","type":"uint256","internalType":"uint256"}],"outputs":[],"stateMutability":"nonpayable"},{"type":"function","name":"lastClaimed","inputs":[{"name":"","type":"address","internalType":"address"}],"outputs":[{"name":"","type":"uint256","internalType":"uint256"}],"stateMutability":"view"},{"type":"function","name":"strategy","inputs":[],"outputs":[{"name":"","type":"address","internalType":"contract IYieldStrategy"}],"stateMutability":"view"},{"type":"function","name":"token","inputs":[],"outputs":[{"name":"","type":"address","internalType":"contract IERC20"}],"stateMutability":"view"},{"type":"function","name":"totalDeposits","inputs":[],"outputs":[{"name":"","type":"uint256","internalType":"uint256"}],"stateMutability":"view"},{"type":"function","name":"withdraw","inputs":[{"name":"amount","type":"uint256","internalType":"uint256"}],"outputs":[],"stateMutability":"nonpayable"},{"type":"event","name":"Deposited","inputs":[{"name":"user","type":"address","indexed":true,"internalType":"address"},{"name":"amount","type":"uint256","indexed":false,"internalType":"uint256"}],"anonymous":false},{"type":"event","name":"Withdrawn","inputs":[{"name":"user","type":"address","indexed":true,"internalType":"address"},{"name":"amount","type":"uint256","indexed":false,"internalType":"uint256"}],"anonymous":false},{"type":"event","name":"YieldClaimed","inputs":[{"name":"user","type":"address","indexed":true,"internalType":"address"},{"name":"yieldAmount","type":"uint256","indexed":false,"internalType":"uint256"}],"anonymous":false},{"type":"error","name":"AmountMustBeGreaterThanZero","inputs":[]},{"type":"error","name":"InsufficientBalance","inputs":[]},{"type":"error","name":"TransferFailed","inputs":[]}],"bytecode":{"object":"0x60a060405234801561001057600080fd5b506040516109c43803806109c483398101604081905261002f91610078565b600160008190556001600160a01b0392831660805280546001600160a01b031916919092161790556100ab565b80516001600160a01b038116811461007357600080fd5b919050565b6000806040838503121561008b57600080fd5b6100948361005c565b91506100a26020840161005c565b90509250929050565b6080516108e96100db600039600081816101ae0152818161026a015281816104cb01526106ef01526108e96000f3fe608060405234801561001057600080fd5b50600436106100b45760003560e01c8063664e970411610071578063664e97041461014f5780637d882097146101575780638391454014610160578063a8c62e761461016b578063b6b55f2514610196578063fc0c546a146101a957600080fd5b8063013eba92146100b957806327e235e3146100ec5780632e1a7d4d1461010c5780633236bee414610121578063406cf22914610134578063567add641461013c575b600080fd5b6100d96100c73660046107d3565b60036020526000908152604090205481565b6040519081526020015b60405180910390f35b6100d96100fa3660046107d3565b60026020526000908152604090205481565b61011f61011a366004610803565b6101d0565b005b6100d961012f3660046107d3565b6103a3565b61011f610449565b6100d961014a3660046107d3565b610466565b6100d9600a81565b6100d960045481565b6100d96301e1338081565b60015461017e906001600160a01b031681565b6040516001600160a01b0390911681526020016100e3565b61011f6101a4366004610803565b610477565b61017e7f000000000000000000000000000000000000000000000000000000000000000081565b6101d8610659565b3360009081526002602052604090205481111561020857604051631e9acf1760e31b815260040160405180910390fd5b610211336106b6565b3360009081526002602052604081208054839290610230908490610832565b9250508190555080600460008282546102499190610832565b909155505060405163a9059cbb60e01b8152336004820152602481018290527f00000000000000000000000000000000000000000000000000000000000000006001600160a01b03169063a9059cbb906044016020604051808303816000875af11580156102bb573d6000803e3d6000fd5b505050506040513d601f19601f820116820180604052508101906102df9190610845565b6102fc576040516312171d8360e31b815260040160405180910390fd5b60015460405163ccad973d60e01b8152336004820152602481018390526001600160a01b039091169063ccad973d90604401600060405180830381600087803b15801561034857600080fd5b505af115801561035c573d6000803e3d6000fd5b50506040518381523392507f7084f5476618d8e60b11ef0d7d3f06914655adb8793e28ff7f018d4c76d505d591506020015b60405180910390a26103a06001600055565b50565b6001600160a01b0381166000908152600260205260408120548015806103df57506001600160a01b038316600090815260036020526040902054155b156103ed5750600092915050565b6001600160a01b0383166000908152600360205260408120546104109042610832565b90506104216301e133806064610867565b600a61042d8385610867565b6104379190610867565b610441919061087e565b949350505050565b610451610659565b61045a336106b6565b6104646001600055565b565b6000610471826103a3565b92915050565b61047f610659565b806000036104a057604051635e85ae7360e01b815260040160405180910390fd5b6104a9336106b6565b6040516323b872dd60e01b8152336004820152306024820152604481018290527f00000000000000000000000000000000000000000000000000000000000000006001600160a01b0316906323b872dd906064016020604051808303816000875af115801561051c573d6000803e3d6000fd5b505050506040513d601f19601f820116820180604052508101906105409190610845565b61055d576040516312171d8360e31b815260040160405180910390fd5b336000908152600260205260408120805483929061057c9084906108a0565b92505081905550806004600082825461059591906108a0565b90915550503360009081526003602052604081205490036105c3573360009081526003602052604090204290555b600154604051630afe546360e21b8152336004820152602481018390526001600160a01b0390911690632bf9518c90604401600060405180830381600087803b15801561060f57600080fd5b505af1158015610623573d6000803e3d6000fd5b50506040518381523392507f2da466a7b24304f47e87fa2e1e5a81b9831ce54fec19055ce277ca2f39ba42c4915060200161038e565b6002600054036106af5760405162461bcd60e51b815260206004820152601f60248201527f5265656e7472616e637947756172643a207265656e7472616e742063616c6c00604482015260640160405180910390fd5b6002600055565b60006106c1826103a3565b905080156107cf5760405163a9059cbb60e01b81526001600160a01b038381166004830152602482018390527f0000000000000000000000000000000000000000000000000000000000000000169063a9059cbb906044016020604051808303816000875af1158015610738573d6000803e3d6000fd5b505050506040513d601f19601f8201168201806040525081019061075c9190610845565b610779576040516312171d8360e31b815260040160405180910390fd5b6001600160a01b03821660008181526003602052604090819020429055517fc04825ba3f383b602255d2a13065a68e325c65c9e0ed5d031ea2b06f641873af906107c69084815260200190565b60405180910390a25b5050565b6000602082840312156107e557600080fd5b81356001600160a01b03811681146107fc57600080fd5b9392505050565b60006020828403121561081557600080fd5b5035919050565b634e487b7160e01b600052601160045260246000fd5b818103818111156104715761047161081c565b60006020828403121561085757600080fd5b815180151581146107fc57600080fd5b80820281158282048414176104715761047161081c565b60008261089b57634e487b7160e01b600052601260045260246000fd5b500490565b808201808211156104715761047161081c56fea264697066735822122081654fbdc23f7e2fc7a739a42aed43ce72204289ba8b5989adf401a3f836d75664736f6c63430008130033","linkReferences":{}},"methodIdentifiers":{"RATE()":"664e9704","YEAR()":"83914540","balances(address)":"27e235e3","calculatePendingYield(address)":"3236bee4","calculateYield(address)":"567add64","claimYield()":"406cf229","deposit(uint256)":"b6b55f25","lastClaimed(address)":"013eba92","strategy()":"a8c62e76","token()":"fc0c546a","totalDeposits()":"7d882097","withdraw(uint256)":"2e1a7d4d"},"id":26}