{"abi":[{"type":"function","name":"onDeposit","inputs":[{"name":"user","type":"address","internalType":"address"},{"name":"amount","type":"uint256","internalType":"uint256"}],"outputs":[],"stateMutability":"nonpayable"},{"type":"function","name":"onWithdraw","inputs":[{"name":"user","type":"address","internalType":"address"},{"name":"amount","type":"uint256","internalType":"uint256"}],"outputs":[],"stateMutability":"nonpayable"},{"type":"event","name":"StrategyDeposit","inputs":[{"name":"user","type":"address","indexed":true,"internalType":"address"},{"name":"amount","type":"uint256","indexed":false,"internalType":"uint256"}],"anonymous":false},{"type":"event","name":"StrategyWithdraw","inputs":[{"name":"user","type":"address","indexed":true,"internalType":"address"},{"name":"amount","type":"uint256","indexed":false,"internalType":"uint256"}],"anonymous":false}],"bytecode":{"object":"0x608060405234801561001057600080fd5b50610153806100206000396000f3fe608060405234801561001057600080fd5b50600436106100365760003560e01c80632bf9518c1461003b578063ccad973d14610050575b600080fd5b61004e6100493660046100e5565b610063565b005b61004e61005e3660046100e5565b6100aa565b816001600160a01b03167fc6f6f91a48277d76f232cc08a9a30f6b05b3fd9b92c3180c25936e17a22a10258260405161009e91815260200190565b60405180910390a25050565b816001600160a01b03167f5d2fa25c519f4eb17cddd59d7e1a05bf2963032821ccd8ddd9b0fe64532ce3648260405161009e91815260200190565b600080604083850312156100f857600080fd5b82356001600160a01b038116811461010f57600080fd5b94602093909301359350505056fea264697066735822122052e899a46d98e777da80705ecaa02ae16d8a7a79a29078195839506a583100e964736f6c63430008130033","linkReferences":{}},"methodIdentifiers":{"onDeposit(address,uint256)":"2bf9518c","onWithdraw(address,uint256)":"ccad973d"},"id":29}