{"abi":[{"type":"function","name":"onDeposit","inputs":[{"name":"user","type":"address","internalType":"address"},{"name":"amount","type":"uint256","internalType":"uint256"}],"outputs":[],"stateMutability":"nonpayable"},{"type":"function","name":"onWithdraw","inputs":[{"name":"user","type":"address","internalType":"address"},{"name":"amount","type":"uint256","internalType":"uint256"}],"outputs":[],"stateMutability":"nonpayable"},{"type":"event","name":"StrategyDeposit","inputs":[{"name":"user","type":"address","indexed":true,"internalType":"address"},{"name":"amount","type":"uint256","indexed":false,"internalType":"uint256"}],"anonymous":false},{"type":"event","name":"StrategyWithdraw","inputs":[{"name":"user","type":"address","indexed":true,"internalType":"address"},{"name":"amount","type":"uint256","indexed":false,"internalType":"uint256"}],"anonymous":false}],"bytecode":{"object":"0x6080604052348015600e575f5ffd5b5061014d8061001c5f395ff3fe608060405234801561000f575f5ffd5b5060043610610034575f3560e01c80632bf9518c14610038578063ccad973d1461004d575b5f5ffd5b61004b6100463660046100e2565b610060565b005b61004b61005b3660046100e2565b6100a7565b816001600160a01b03167fc6f6f91a48277d76f232cc08a9a30f6b05b3fd9b92c3180c25936e17a22a10258260405161009b91815260200190565b60405180910390a25050565b816001600160a01b03167f5d2fa25c519f4eb17cddd59d7e1a05bf2963032821ccd8ddd9b0fe64532ce3648260405161009b91815260200190565b5f5f604083850312156100f3575f5ffd5b82356001600160a01b0381168114610109575f5ffd5b94602093909301359350505056fea2646970667358221220a1d9daea28a5df2ce95340a2739d9c93b2d412376a56ade48d689ba8e1056b3664736f6c634300081c0033","linkReferences":{}},"methodIdentifiers":{"onDeposit(address,uint256)":"2bf9518c","onWithdraw(address,uint256)":"ccad973d"},"id":32}