{"abi":[{"type":"constructor","inputs":[{"name":"_entryPoint","type":"address","internalType":"address"},{"name":"_authManager","type":"address","internalType":"address"}],"stateMutability":"nonpayable"},{"type":"function","name":"authManager","inputs":[],"outputs":[{"name":"","type":"address","internalType":"contract IAuthenticationManager"}],"stateMutability":"view"},{"type":"function","name":"entryPoint","inputs":[],"outputs":[{"name":"","type":"address","internalType":"address"}],"stateMutability":"view"},{"type":"function","name":"execute","inputs":[{"name":"target","type":"address","internalType":"address"},{"name":"value","type":"uint256","internalType":"uint256"},{"name":"data","type":"bytes","internalType":"bytes"}],"outputs":[],"stateMutability":"nonpayable"},{"type":"function","name":"validateUserOp","inputs":[{"name":"op","type":"tuple","internalType":"struct UserOperation","components":[{"name":"sender","type":"address","internalType":"address"},{"name":"signature","type":"bytes","internalType":"bytes"},{"name":"callData","type":"bytes","internalType":"bytes"},{"name":"nonce","type":"uint256","internalType":"uint256"}]}],"outputs":[{"name":"","type":"uint256","internalType":"uint256"}],"stateMutability":"view"},{"type":"error","name":"OnlyEntryPoint","inputs":[]}],"bytecode":{"object":"0x60a060405234801561001057600080fd5b5060405161052238038061052283398101604081905261002f91610073565b6001600160a01b03918216608052600080546001600160a01b031916919092161790556100a6565b80516001600160a01b038116811461006e57600080fd5b919050565b6000806040838503121561008657600080fd5b61008f83610057565b915061009d60208401610057565b90509250929050565b60805161045b6100c76000396000818160a701526101be015261045b6000f3fe608060405234801561001057600080fd5b506004361061004c5760003560e01c8063920811b214610051578063ad63e03814610081578063b0d691fe146100a2578063b61d27f6146100c9575b600080fd5b600054610064906001600160a01b031681565b6040516001600160a01b0390911681526020015b60405180910390f35b61009461008f3660046102a5565b6100de565b604051908152602001610078565b6100647f000000000000000000000000000000000000000000000000000000000000000081565b6100dc6100d7366004610303565b6101b3565b005b6000806100ee602084018461038a565b6040516100fc9291906103d8565b60405190819003902060008054919250906001600160a01b0316638dfe5c5761012860208701876103e8565b6040516001600160e01b031960e084901b1681526001600160a01b03909116600482015260248101859052604401602060405180830381865afa158015610173573d6000803e3d6000fd5b505050506040513d601f19601f820116820180604052508101906101979190610403565b9050806101a55760016101a8565b60005b60ff16949350505050565b336001600160a01b037f000000000000000000000000000000000000000000000000000000000000000016146101fc5760405163bd07c55160e01b815260040160405180910390fd5b6000846001600160a01b03168484846040516102199291906103d8565b60006040518083038185875af1925050503d8060008114610256576040519150601f19603f3d011682016040523d82523d6000602084013e61025b565b606091505b505090508061029e5760405162461bcd60e51b815260206004820152600b60248201526a10d85b1b0819985a5b195960aa1b604482015260640160405180910390fd5b5050505050565b6000602082840312156102b757600080fd5b813567ffffffffffffffff8111156102ce57600080fd5b8201608081850312156102e057600080fd5b9392505050565b80356001600160a01b03811681146102fe57600080fd5b919050565b6000806000806060858703121561031957600080fd5b610322856102e7565b935060208501359250604085013567ffffffffffffffff8082111561034657600080fd5b818701915087601f83011261035a57600080fd5b81358181111561036957600080fd5b88602082850101111561037b57600080fd5b95989497505060200194505050565b6000808335601e198436030181126103a157600080fd5b83018035915067ffffffffffffffff8211156103bc57600080fd5b6020019150368190038213156103d157600080fd5b9250929050565b8183823760009101908152919050565b6000602082840312156103fa57600080fd5b6102e0826102e7565b60006020828403121561041557600080fd5b815180151581146102e057600080fdfea2646970667358221220f280125ef654cb6d2b8f6177d593da02ffb0cb40c40b4036018b8df62678a9c764736f6c63430008130033","linkReferences":{}},"methodIdentifiers":{"authManager()":"920811b2","entryPoint()":"b0d691fe","execute(address,uint256,bytes)":"b61d27f6","validateUserOp((address,bytes,bytes,uint256))":"ad63e038"},"id":24}