{"abi":[{"type":"constructor","inputs":[{"name":"_entryPoint","type":"address","internalType":"address"},{"name":"_authManager","type":"address","internalType":"address"}],"stateMutability":"nonpayable"},{"type":"function","name":"authManager","inputs":[],"outputs":[{"name":"","type":"address","internalType":"contract IAuthenticationManager"}],"stateMutability":"view"},{"type":"function","name":"entryPoint","inputs":[],"outputs":[{"name":"","type":"address","internalType":"address"}],"stateMutability":"view"},{"type":"function","name":"execute","inputs":[{"name":"target","type":"address","internalType":"address"},{"name":"value","type":"uint256","internalType":"uint256"},{"name":"data","type":"bytes","internalType":"bytes"}],"outputs":[],"stateMutability":"nonpayable"},{"type":"function","name":"validateUserOp","inputs":[{"name":"op","type":"tuple","internalType":"struct UserOperation","components":[{"name":"sender","type":"address","internalType":"address"},{"name":"callData","type":"bytes","internalType":"bytes"},{"name":"signature","type":"bytes","internalType":"bytes"},{"name":"nonce","type":"uint256","internalType":"uint256"},{"name":"callGasLimit","type":"uint256","internalType":"uint256"},{"name":"verificationGasLimit","type":"uint256","internalType":"uint256"},{"name":"preVerificationGas","type":"uint256","internalType":"uint256"},{"name":"maxFeePerGas","type":"uint256","internalType":"uint256"},{"name":"maxPriorityFeePerGas","type":"uint256","internalType":"uint256"}]}],"outputs":[{"name":"validationCode","type":"uint256","internalType":"uint256"}],"stateMutability":"view"},{"type":"error","name":"OnlyEntryPoint","inputs":[]}],"bytecode":{"object":"0x60a060405234801561000f575f5ffd5b506040516104fb3803806104fb83398101604081905261002e91610070565b6001600160a01b039182166080525f80546001600160a01b031916919092161790556100a1565b80516001600160a01b038116811461006b575f5ffd5b919050565b5f5f60408385031215610081575f5ffd5b61008a83610055565b915061009860208401610055565b90509250929050565b60805161043c6100bf5f395f818160a301526101b5015261043c5ff3fe608060405234801561000f575f5ffd5b506004361061004a575f3560e01c80638e24d4151461004e578063920811b214610074578063b0d691fe1461009e578063b61d27f6146100c5575b5f5ffd5b61006161005c366004610298565b6100da565b6040519081526020015b60405180910390f35b5f54610086906001600160a01b031681565b6040516001600160a01b03909116815260200161006b565b6100867f000000000000000000000000000000000000000000000000000000000000000081565b6100d86100d33660046102f2565b6101aa565b005b5f806100e96040840184610375565b6040516100f79291906103bf565b6040519081900390205f8054919250906001600160a01b0316638dfe5c5761012260208701876103ce565b6040516001600160e01b031960e084901b1681526001600160a01b03909116600482015260248101859052604401602060405180830381865afa15801561016b573d5f5f3e3d5ffd5b505050506040513d601f19601f8201168201806040525081019061018f91906103e7565b90508061019d57600161019f565b5f5b60ff16949350505050565b336001600160a01b037f000000000000000000000000000000000000000000000000000000000000000016146101f35760405163bd07c55160e01b815260040160405180910390fd5b5f846001600160a01b031684848460405161020f9291906103bf565b5f6040518083038185875af1925050503d805f8114610249576040519150601f19603f3d011682016040523d82523d5f602084013e61024e565b606091505b50509050806102915760405162461bcd60e51b815260206004820152600b60248201526a10d85b1b0819985a5b195960aa1b604482015260640160405180910390fd5b5050505050565b5f602082840312156102a8575f5ffd5b813567ffffffffffffffff8111156102be575f5ffd5b820161012081850312156102d0575f5ffd5b9392505050565b80356001600160a01b03811681146102ed575f5ffd5b919050565b5f5f5f5f60608587031215610305575f5ffd5b61030e856102d7565b935060208501359250604085013567ffffffffffffffff811115610330575f5ffd5b8501601f81018713610340575f5ffd5b803567ffffffffffffffff811115610356575f5ffd5b876020828401011115610367575f5ffd5b949793965060200194505050565b5f5f8335601e1984360301811261038a575f5ffd5b83018035915067ffffffffffffffff8211156103a4575f5ffd5b6020019150368190038213156103b8575f5ffd5b9250929050565b818382375f9101908152919050565b5f602082840312156103de575f5ffd5b6102d0826102d7565b5f602082840312156103f7575f5ffd5b815180151581146102d0575f5ffdfea2646970667358221220da8e9980bde32a01ca91fd4894efa6c2bfb013fa65543950ed21a8904a5619df64736f6c634300081c0033","linkReferences":{}},"methodIdentifiers":{"authManager()":"920811b2","entryPoint()":"b0d691fe","execute(address,uint256,bytes)":"b61d27f6","validateUserOp((address,bytes,bytes,uint256,uint256,uint256,uint256,uint256,uint256))":"8e24d415"},"id":28}