{"abi":[{"type":"function","name":"deposit","inputs":[{"name":"amount","type":"uint256","internalType":"uint256"}],"outputs":[],"stateMutability":"nonpayable"},{"type":"event","name":"Deposited","inputs":[{"name":"amount","type":"uint256","indexed":false,"internalType":"uint256"}],"anonymous":false}],"bytecode":{"object":"0x6080604052348015600e575f5ffd5b5060bd80601a5f395ff3fe6080604052348015600e575f5ffd5b50600436106026575f3560e01c8063b6b55f2514602a575b5f5ffd5b603960353660046071565b603b565b005b6040518181527f2a89b2e3d580398d6dc2db5e0f336b52602bbaa51afa9bb5cdf59239cf0d2bea9060200160405180910390a150565b5f602082840312156080575f5ffd5b503591905056fea26469706673582212203892aff35f6ea26198b797922b319fc4c273096a262c412a471dcb55e537949f64736f6c634300081c0033","linkReferences":{}},"methodIdentifiers":{"deposit(uint256)":"b6b55f25"},"id":30}