{"abi":[{"type":"constructor","inputs":[{"name":"_entryPoint","type":"address","internalType":"address"}],"stateMutability":"nonpayable"},{"type":"function","name":"entryPoint","inputs":[],"outputs":[{"name":"","type":"address","internalType":"contract IEntryPoint"}],"stateMutability":"view"},{"type":"function","name":"execute","inputs":[{"name":"userOp","type":"tuple","internalType":"struct UserOperation","components":[{"name":"sender","type":"address","internalType":"address"},{"name":"callData","type":"bytes","internalType":"bytes"},{"name":"signature","type":"bytes","internalType":"bytes"},{"name":"nonce","type":"uint256","internalType":"uint256"},{"name":"callGasLimit","type":"uint256","internalType":"uint256"},{"name":"verificationGasLimit","type":"uint256","internalType":"uint256"},{"name":"preVerificationGas","type":"uint256","internalType":"uint256"},{"name":"maxFeePerGas","type":"uint256","internalType":"uint256"},{"name":"maxPriorityFeePerGas","type":"uint256","internalType":"uint256"}]}],"outputs":[],"stateMutability":"nonpayable"},{"type":"event","name":"OperationExecuted","inputs":[{"name":"wallet","type":"address","indexed":true,"internalType":"address"},{"name":"selector","type":"bytes4","indexed":true,"internalType":"bytes4"}],"anonymous":false}],"bytecode":{"object":"0x6080604052348015600e575f5ffd5b50604051610445380380610445833981016040819052602b91604e565b5f80546001600160a01b0319166001600160a01b03929092169190911790556079565b5f60208284031215605d575f5ffd5b81516001600160a01b03811681146072575f5ffd5b9392505050565b6103bf806100865f395ff3fe608060405234801561000f575f5ffd5b5060043610610034575f3560e01c8063aeba01f814610038578063b0d691fe1461004d575b5f5ffd5b61004b6100463660046102b7565b61007b565b005b5f5461005f906001600160a01b031681565b6040516001600160a01b03909116815260200160405180910390f35b5f546001600160a01b031633146100ca5760405162461bcd60e51b815260206004820152600e60248201526d139bdd08115b9d1c9e541bda5b9d60921b60448201526064015b60405180910390fd5b5f6100d860208301836102f6565b6001600160a01b03166100ee602084018461031c565b6040516100fc929190610366565b5f604051808303815f865af19150503d805f8114610135576040519150601f19603f3d011682016040523d82523d5f602084013e61013a565b606091505b505090508061017e5760405162461bcd60e51b815260206004820152601060248201526f115e1958dd5d1a5bdb8819985a5b195960821b60448201526064016100c1565b5f600461018e602085018561031c565b9050106102655760186101a4602085018561031c565b60038181106101b5576101b5610375565b909101356001600160f81b03191690911c905060106101d7602086018661031c565b60028181106101e8576101e8610375565b909101356001600160f81b03191690911c9050600861020a602087018761031c565b600181811061021b5761021b610375565b909101356001600160f81b03191690911c905061023b602087018761031c565b5f81811061024b5761024b610375565b9050013560f81c60f81b6001600160f81b03191617171790505b6001600160e01b0319811661027d60208501856102f6565b6001600160a01b03167f1990f4f1ad494e7dd479a4f5e1de7827efd8ab08bd31662a480188a42a268e3b60405160405180910390a3505050565b5f602082840312156102c7575f5ffd5b813567ffffffffffffffff8111156102dd575f5ffd5b820161012081850312156102ef575f5ffd5b9392505050565b5f60208284031215610306575f5ffd5b81356001600160a01b03811681146102ef575f5ffd5b5f5f8335601e19843603018112610331575f5ffd5b83018035915067ffffffffffffffff82111561034b575f5ffd5b60200191503681900382131561035f575f5ffd5b9250929050565b818382375f9101908152919050565b634e487b7160e01b5f52603260045260245ffdfea26469706673582212200e900c493fdee037edf2a52bcd22cd30b5979c15500d6a4d86372a463f72959364736f6c634300081c0033","linkReferences":{}},"methodIdentifiers":{"entryPoint()":"b0d691fe","execute((address,bytes,bytes,uint256,uint256,uint256,uint256,uint256,uint256))":"aeba01f8"},"id":25}