{"abi":[{"type":"function","name":"login","inputs":[{"name":"verifier","type":"bytes32","internalType":"bytes32"}],"outputs":[{"name":"","type":"bool","internalType":"bool"}],"stateMutability":"view"},{"type":"function","name":"register","inputs":[{"name":"verifier","type":"bytes32","internalType":"bytes32"}],"outputs":[],"stateMutability":"nonpayable"},{"type":"function","name":"userVerifier","inputs":[{"name":"","type":"address","internalType":"address"}],"outputs":[{"name":"","type":"bytes32","internalType":"bytes32"}],"stateMutability":"view"},{"type":"event","name":"Authenticated","inputs":[{"name":"user","type":"address","indexed":true,"internalType":"address"}],"anonymous":false},{"type":"event","name":"Registered","inputs":[{"name":"user","type":"address","indexed":true,"internalType":"address"},{"name":"verifier","type":"bytes32","indexed":false,"internalType":"bytes32"}],"anonymous":false}],"bytecode":{"object":"0x608060405234801561001057600080fd5b506101dc806100206000396000f3fe608060405234801561001057600080fd5b50600436106100415760003560e01c8063879281c4146100465780639dc26fb91461007d578063e1fa8e84146100ab575b600080fd5b61006861005436600461015d565b336000908152602081905260409020541490565b60405190151581526020015b60405180910390f35b61009d61008b366004610176565b60006020819052908152604090205481565b604051908152602001610074565b6100be6100b936600461015d565b6100c0565b005b33600090815260208190526040902054156101165760405162461bcd60e51b8152602060048201526012602482015271105b1c9958591e481c9959da5cdd195c995960721b604482015260640160405180910390fd5b336000818152602081815260409182902084905590518381527fb8142d42f05d95abf0a6570799774d59276e49ea32a04d9a4ec316ea4a6886bc910160405180910390a250565b60006020828403121561016f57600080fd5b5035919050565b60006020828403121561018857600080fd5b81356001600160a01b038116811461019f57600080fd5b939250505056fea264697066735822122014b03dc36936b71de8f0c1f99614d575f253e72e976bd95280b43a533e78596364736f6c63430008130033","linkReferences":{}},"methodIdentifiers":{"login(bytes32)":"879281c4","register(bytes32)":"e1fa8e84","userVerifier(address)":"9dc26fb9"},"id":23}