{"abi":[{"type":"function","name":"login","inputs":[{"name":"user","type":"address","internalType":"address"},{"name":"verifier","type":"bytes32","internalType":"bytes32"}],"outputs":[{"name":"","type":"bool","internalType":"bool"}],"stateMutability":"view"},{"type":"function","name":"register","inputs":[{"name":"verifier","type":"bytes32","internalType":"bytes32"}],"outputs":[],"stateMutability":"nonpayable"},{"type":"function","name":"userVerifier","inputs":[{"name":"","type":"address","internalType":"address"}],"outputs":[{"name":"","type":"bytes32","internalType":"bytes32"}],"stateMutability":"view"},{"type":"event","name":"Registered","inputs":[{"name":"user","type":"address","indexed":true,"internalType":"address"},{"name":"verifier","type":"bytes32","indexed":false,"internalType":"bytes32"}],"anonymous":false}],"bytecode":{"object":"0x6080604052348015600e575f5ffd5b506102118061001c5f395ff3fe608060405234801561000f575f5ffd5b506004361061003f575f3560e01c80638dfe5c57146100435780639dc26fb914610084578063e1fa8e84146100b1575b5f5ffd5b61006f61005136600461017c565b6001600160a01b03919091165f908152602081905260409020541490565b60405190151581526020015b60405180910390f35b6100a36100923660046101a4565b5f6020819052908152604090205481565b60405190815260200161007b565b6100c46100bf3660046101c4565b6100c6565b005b335f908152602081905260409020541561011b5760405162461bcd60e51b8152602060048201526012602482015271105b1c9958591e481c9959da5cdd195c995960721b604482015260640160405180910390fd5b335f818152602081815260409182902084905590518381527fb8142d42f05d95abf0a6570799774d59276e49ea32a04d9a4ec316ea4a6886bc910160405180910390a250565b80356001600160a01b0381168114610177575f5ffd5b919050565b5f5f6040838503121561018d575f5ffd5b61019683610161565b946020939093013593505050565b5f602082840312156101b4575f5ffd5b6101bd82610161565b9392505050565b5f602082840312156101d4575f5ffd5b503591905056fea2646970667358221220749517d32cf53a10851a710b41009e72da9e694d7214e0c48b7132f71f5d9c8064736f6c634300081c0033","linkReferences":{}},"methodIdentifiers":{"login(address,bytes32)":"8dfe5c57","register(bytes32)":"e1fa8e84","userVerifier(address)":"9dc26fb9"},"id":23}