{"abi":[{"type":"function","name":"login","inputs":[{"name":"user","type":"address","internalType":"address"},{"name":"verifier","type":"bytes32","internalType":"bytes32"}],"outputs":[{"name":"","type":"bool","internalType":"bool"}],"stateMutability":"view"},{"type":"function","name":"register","inputs":[{"name":"verifier","type":"bytes32","internalType":"bytes32"}],"outputs":[],"stateMutability":"nonpayable"},{"type":"function","name":"userVerifier","inputs":[{"name":"","type":"address","internalType":"address"}],"outputs":[{"name":"","type":"bytes32","internalType":"bytes32"}],"stateMutability":"view"},{"type":"event","name":"Registered","inputs":[{"name":"user","type":"address","indexed":true,"internalType":"address"},{"name":"verifier","type":"bytes32","indexed":false,"internalType":"bytes32"}],"anonymous":false}],"bytecode":{"object":"0x608060405234801561001057600080fd5b5061021f806100206000396000f3fe608060405234801561001057600080fd5b50600436106100415760003560e01c80638dfe5c57146100465780639dc26fb914610088578063e1fa8e84146100b6575b600080fd5b610073610054366004610184565b6001600160a01b03919091166000908152602081905260409020541490565b60405190151581526020015b60405180910390f35b6100a86100963660046101ae565b60006020819052908152604090205481565b60405190815260200161007f565b6100c96100c43660046101d0565b6100cb565b005b33600090815260208190526040902054156101215760405162461bcd60e51b8152602060048201526012602482015271105b1c9958591e481c9959da5cdd195c995960721b604482015260640160405180910390fd5b336000818152602081815260409182902084905590518381527fb8142d42f05d95abf0a6570799774d59276e49ea32a04d9a4ec316ea4a6886bc910160405180910390a250565b80356001600160a01b038116811461017f57600080fd5b919050565b6000806040838503121561019757600080fd5b6101a083610168565b946020939093013593505050565b6000602082840312156101c057600080fd5b6101c982610168565b9392505050565b6000602082840312156101e257600080fd5b503591905056fea264697066735822122064af6c96c934d680adb4701025f43e5c23eaf06e8ef8754328327b852f11b9e964736f6c63430008130033","linkReferences":{}},"methodIdentifiers":{"login(address,bytes32)":"8dfe5c57","register(bytes32)":"e1fa8e84","userVerifier(address)":"9dc26fb9"},"id":23}